{
  "_format": "hh-sol-artifact-1",
  "contractName": "MintableERC20",
  "sourceName": "contracts/MintableERC20.sol",
  "abi": [
    {
      "inputs": [
        {
          "internalType": "string",
          "name": "name_",
          "type": "string"
        },
        {
          "internalType": "string",
          "name": "symbol_",
          "type": "string"
        }
      ],
      "stateMutability": "nonpayable",
      "type": "constructor"
    },
    {
      "inputs": [
        {
          "internalType": "uint256",
          "name": "requested",
          "type": "uint256"
        },
        {
          "internalType": "uint256",
          "name": "available",
          "type": "uint256"
        }
      ],
      "name": "InsufficientBalance",
      "type": "error"
    },
    {
      "anonymous": false,
      "inputs": [
        {
          "indexed": true,
          "internalType": "address",
          "name": "owner",
          "type": "address"
        },
        {
          "indexed": true,
          "internalType": "address",
          "name": "spender",
          "type": "address"
        },
        {
          "indexed": false,
          "internalType": "uint256",
          "name": "amount",
          "type": "uint256"
        }
      ],
      "name": "Approval",
      "type": "event"
    },
    {
      "anonymous": false,
      "inputs": [
        {
          "indexed": true,
          "internalType": "address",
          "name": "sender",
          "type": "address"
        },
        {
          "indexed": true,
          "internalType": "address",
          "name": "receiver",
          "type": "address"
        },
        {
          "indexed": false,
          "internalType": "uint256",
          "name": "amount",
          "type": "uint256"
        }
      ],
      "name": "Transfer",
      "type": "event"
    },
    {
      "inputs": [
        {
          "internalType": "address",
          "name": "owner",
          "type": "address"
        },
        {
          "internalType": "address",
          "name": "spender",
          "type": "address"
        },
        {
          "internalType": "uint256",
          "name": "amount",
          "type": "uint256"
        }
      ],
      "name": "_approve",
      "outputs": [
        {
          "internalType": "bool",
          "name": "",
          "type": "bool"
        }
      ],
      "stateMutability": "nonpayable",
      "type": "function"
    },
    {
      "inputs": [
        {
          "internalType": "address",
          "name": "owner",
          "type": "address"
        },
        {
          "internalType": "address",
          "name": "spender",
          "type": "address"
        }
      ],
      "name": "allowance",
      "outputs": [
        {
          "internalType": "uint256",
          "name": "",
          "type": "uint256"
        }
      ],
      "stateMutability": "view",
      "type": "function"
    },
    {
      "inputs": [
        {
          "internalType": "address",
          "name": "spender",
          "type": "address"
        },
        {
          "internalType": "uint256",
          "name": "amount",
          "type": "uint256"
        }
      ],
      "name": "approve",
      "outputs": [
        {
          "internalType": "bool",
          "name": "",
          "type": "bool"
        }
      ],
      "stateMutability": "nonpayable",
      "type": "function"
    },
    {
      "inputs": [
        {
          "internalType": "address",
          "name": "account",
          "type": "address"
        }
      ],
      "name": "balanceOf",
      "outputs": [
        {
          "internalType": "uint256",
          "name": "",
          "type": "uint256"
        }
      ],
      "stateMutability": "view",
      "type": "function"
    },
    {
      "inputs": [],
      "name": "decimals",
      "outputs": [
        {
          "internalType": "uint8",
          "name": "",
          "type": "uint8"
        }
      ],
      "stateMutability": "view",
      "type": "function"
    },
    {
      "inputs": [
        {
          "internalType": "address",
          "name": "receiver",
          "type": "address"
        },
        {
          "internalType": "uint256",
          "name": "amount",
          "type": "uint256"
        }
      ],
      "name": "mint",
      "outputs": [],
      "stateMutability": "nonpayable",
      "type": "function"
    },
    {
      "inputs": [],
      "name": "minter",
      "outputs": [
        {
          "internalType": "address",
          "name": "",
          "type": "address"
        }
      ],
      "stateMutability": "view",
      "type": "function"
    },
    {
      "inputs": [],
      "name": "name",
      "outputs": [
        {
          "internalType": "string",
          "name": "",
          "type": "string"
        }
      ],
      "stateMutability": "view",
      "type": "function"
    },
    {
      "inputs": [],
      "name": "symbol",
      "outputs": [
        {
          "internalType": "string",
          "name": "",
          "type": "string"
        }
      ],
      "stateMutability": "view",
      "type": "function"
    },
    {
      "inputs": [],
      "name": "totalSupply",
      "outputs": [
        {
          "internalType": "uint256",
          "name": "",
          "type": "uint256"
        }
      ],
      "stateMutability": "view",
      "type": "function"
    },
    {
      "inputs": [
        {
          "internalType": "address",
          "name": "receiver",
          "type": "address"
        },
        {
          "internalType": "uint256",
          "name": "amount",
          "type": "uint256"
        }
      ],
      "name": "transfer",
      "outputs": [
        {
          "internalType": "bool",
          "name": "",
          "type": "bool"
        }
      ],
      "stateMutability": "nonpayable",
      "type": "function"
    },
    {
      "inputs": [
        {
          "internalType": "address",
          "name": "sender",
          "type": "address"
        },
        {
          "internalType": "address",
          "name": "receiver",
          "type": "address"
        },
        {
          "internalType": "uint256",
          "name": "amount",
          "type": "uint256"
        }
      ],
      "name": "transferFrom",
      "outputs": [
        {
          "internalType": "bool",
          "name": "",
          "type": "bool"
        }
      ],
      "stateMutability": "nonpayable",
      "type": "function"
    }
  ],
  "bytecode": "0x60806040523480156200001157600080fd5b5060405162001605380380620016058339818101604052810190620000379190620001f0565b81600090805190602001906200004f929190620000ce565b50806001908051906020019062000068929190620000ce565b506012600260006101000a81548160ff021916908360ff16021790555033600260016101000a81548173ffffffffffffffffffffffffffffffffffffffff021916908373ffffffffffffffffffffffffffffffffffffffff1602179055505050620003d3565b828054620000dc90620002f8565b90600052602060002090601f0160209004810192826200010057600085556200014c565b82601f106200011b57805160ff19168380011785556200014c565b828001600101855582156200014c579182015b828111156200014b5782518255916020019190600101906200012e565b5b5090506200015b91906200015f565b5090565b5b808211156200017a57600081600090555060010162000160565b5090565b6000620001956200018f846200028c565b62000263565b905082815260208101848484011115620001ae57600080fd5b620001bb848285620002c2565b509392505050565b600082601f830112620001d557600080fd5b8151620001e78482602086016200017e565b91505092915050565b600080604083850312156200020457600080fd5b600083015167ffffffffffffffff8111156200021f57600080fd5b6200022d85828601620001c3565b925050602083015167ffffffffffffffff8111156200024b57600080fd5b6200025985828601620001c3565b9150509250929050565b60006200026f62000282565b90506200027d82826200032e565b919050565b6000604051905090565b600067ffffffffffffffff821115620002aa57620002a962000393565b5b620002b582620003c2565b9050602081019050919050565b60005b83811015620002e2578082015181840152602081019050620002c5565b83811115620002f2576000848401525b50505050565b600060028204905060018216806200031157607f821691505b6020821081141562000328576200032762000364565b5b50919050565b6200033982620003c2565b810181811067ffffffffffffffff821117156200035b576200035a62000393565b5b80604052505050565b7f4e487b7100000000000000000000000000000000000000000000000000000000600052602260045260246000fd5b7f4e487b7100000000000000000000000000000000000000000000000000000000600052604160045260246000fd5b6000601f19601f8301169050919050565b61122280620003e36000396000f3fe608060405234801561001057600080fd5b50600436106100b45760003560e01c8063313ce56711610071578063313ce567146101a357806340c10f19146101c157806370a08231146101dd57806395d89b411461020d578063a9059cbb1461022b578063dd62ed3e1461025b576100b4565b806306fdde03146100b957806307546172146100d7578063095ea7b3146100f5578063104e81ff1461012557806318160ddd1461015557806323b872dd14610173575b600080fd5b6100c161028b565b6040516100ce9190610db2565b60405180910390f35b6100df610319565b6040516100ec9190610d7c565b60405180910390f35b61010f600480360381019061010a9190610c3f565b61033f565b60405161011c9190610d97565b60405180910390f35b61013f600480360381019061013a9190610bf0565b610357565b60405161014c9190610d97565b60405180910390f35b61015d610529565b60405161016a9190610e54565b60405180910390f35b61018d60048036038101906101889190610bf0565b61052f565b60405161019a9190610d97565b60405180910390f35b6101ab610623565b6040516101b89190610e98565b60405180910390f35b6101db60048036038101906101d69190610c3f565b610636565b005b6101f760048036038101906101f29190610b8b565b61079f565b6040516102049190610e54565b60405180910390f35b6102156107e8565b6040516102229190610db2565b60405180910390f35b61024560048036038101906102409190610c3f565b610876565b6040516102529190610d97565b60405180910390f35b61027560048036038101906102709190610bb4565b61088d565b6040516102829190610e54565b60405180910390f35b6000805461029890610fe1565b80601f01602080910402602001604051908101604052809291908181526020018280546102c490610fe1565b80156103115780601f106102e657610100808354040283529160200191610311565b820191906000526020600020905b8154815290600101906020018083116102f457829003601f168201915b505050505081565b600260019054906101000a900473ffffffffffffffffffffffffffffffffffffffff1681565b600061034c338484610357565b506001905092915050565b60008073ffffffffffffffffffffffffffffffffffffffff168473ffffffffffffffffffffffffffffffffffffffff1614156103c8576040517f08c379a00000000000000000000000000000000000000000000000000000000081526004016103bf90610dd4565b60405180910390fd5b600073ffffffffffffffffffffffffffffffffffffffff168373ffffffffffffffffffffffffffffffffffffffff161415610438576040517f08c379a000000000000000000000000000000000000000000000000000000000815260040161042f90610e34565b60405180910390fd5b81600560008673ffffffffffffffffffffffffffffffffffffffff1673ffffffffffffffffffffffffffffffffffffffff16815260200190815260200160002060008573ffffffffffffffffffffffffffffffffffffffff1673ffffffffffffffffffffffffffffffffffffffff168152602001908152602001600020819055508273ffffffffffffffffffffffffffffffffffffffff168473ffffffffffffffffffffffffffffffffffffffff167f8c5be1e5ebec7d5bd14f71427d1e84f3dd0314c0f7b2291e5b200ac8c7c3b925846040516105169190610e54565b60405180910390a3600190509392505050565b60035481565b600061053c848484610914565b6000600560008673ffffffffffffffffffffffffffffffffffffffff1673ffffffffffffffffffffffffffffffffffffffff16815260200190815260200160002060003373ffffffffffffffffffffffffffffffffffffffff1673ffffffffffffffffffffffffffffffffffffffff16815260200190815260200160002054905082811015610600576040517f08c379a00000000000000000000000000000000000000000000000000000000081526004016105f790610df4565b60405180910390fd5b610616853385846106119190610f25565b610357565b5060019150509392505050565b600260009054906101000a900460ff1681565b600260019054906101000a900473ffffffffffffffffffffffffffffffffffffffff1673ffffffffffffffffffffffffffffffffffffffff163373ffffffffffffffffffffffffffffffffffffffff16146106c6576040517f08c379a00000000000000000000000000000000000000000000000000000000081526004016106bd90610e14565b60405180910390fd5b80600360008282546106d89190610ecf565b9250508190555080600460008473ffffffffffffffffffffffffffffffffffffffff1673ffffffffffffffffffffffffffffffffffffffff168152602001908152602001600020600082825461072e9190610ecf565b925050819055508173ffffffffffffffffffffffffffffffffffffffff16600073ffffffffffffffffffffffffffffffffffffffff167fddf252ad1be2c89b69c2b068fc378daa952ba7f163c4a11628f55a4df523b3ef836040516107939190610e54565b60405180910390a35050565b6000600460008373ffffffffffffffffffffffffffffffffffffffff1673ffffffffffffffffffffffffffffffffffffffff168152602001908152602001600020549050919050565b600180546107f590610fe1565b80601f016020809104026020016040519081016040528092919081815260200182805461082190610fe1565b801561086e5780601f106108435761010080835404028352916020019161086e565b820191906000526020600020905b81548152906001019060200180831161085157829003601f168201915b505050505081565b6000610883338484610914565b6001905092915050565b6000600560008473ffffffffffffffffffffffffffffffffffffffff1673ffffffffffffffffffffffffffffffffffffffff16815260200190815260200160002060008373ffffffffffffffffffffffffffffffffffffffff1673ffffffffffffffffffffffffffffffffffffffff16815260200190815260200160002054905092915050565b600073ffffffffffffffffffffffffffffffffffffffff168373ffffffffffffffffffffffffffffffffffffffff161415610984576040517f08c379a000000000000000000000000000000000000000000000000000000000815260040161097b90610dd4565b60405180910390fd5b600073ffffffffffffffffffffffffffffffffffffffff168273ffffffffffffffffffffffffffffffffffffffff1614156109f4576040517f08c379a00000000000000000000000000000000000000000000000000000000081526004016109eb90610e34565b60405180910390fd5b6109fd8361079f565b811115610a4b5780610a0e3361079f565b6040517fcf479181000000000000000000000000000000000000000000000000000000008152600401610a42929190610e6f565b60405180910390fd5b80600460008573ffffffffffffffffffffffffffffffffffffffff1673ffffffffffffffffffffffffffffffffffffffff1681526020019081526020016000206000828254610a9a9190610f25565b9250508190555080600460008473ffffffffffffffffffffffffffffffffffffffff1673ffffffffffffffffffffffffffffffffffffffff1681526020019081526020016000206000828254610af09190610ecf565b925050819055508173ffffffffffffffffffffffffffffffffffffffff168373ffffffffffffffffffffffffffffffffffffffff167fddf252ad1be2c89b69c2b068fc378daa952ba7f163c4a11628f55a4df523b3ef83604051610b549190610e54565b60405180910390a3505050565b600081359050610b70816111be565b92915050565b600081359050610b85816111d5565b92915050565b600060208284031215610b9d57600080fd5b6000610bab84828501610b61565b91505092915050565b60008060408385031215610bc757600080fd5b6000610bd585828601610b61565b9250506020610be685828601610b61565b9150509250929050565b600080600060608486031215610c0557600080fd5b6000610c1386828701610b61565b9350506020610c2486828701610b61565b9250506040610c3586828701610b76565b9150509250925092565b60008060408385031215610c5257600080fd5b6000610c6085828601610b61565b9250506020610c7185828601610b76565b9150509250929050565b610c8481610f59565b82525050565b610c9381610f6b565b82525050565b6000610ca482610eb3565b610cae8185610ebe565b9350610cbe818560208601610fae565b610cc781611071565b840191505092915050565b6000610cdf602b83610ebe565b9150610cea82611082565b604082019050919050565b6000610d02602d83610ebe565b9150610d0d826110d1565b604082019050919050565b6000610d25602b83610ebe565b9150610d3082611120565b604082019050919050565b6000610d48602983610ebe565b9150610d538261116f565b604082019050919050565b610d6781610f97565b82525050565b610d7681610fa1565b82525050565b6000602082019050610d916000830184610c7b565b92915050565b6000602082019050610dac6000830184610c8a565b92915050565b60006020820190508181036000830152610dcc8184610c99565b905092915050565b60006020820190508181036000830152610ded81610cd2565b9050919050565b60006020820190508181036000830152610e0d81610cf5565b9050919050565b60006020820190508181036000830152610e2d81610d18565b9050919050565b60006020820190508181036000830152610e4d81610d3b565b9050919050565b6000602082019050610e696000830184610d5e565b92915050565b6000604082019050610e846000830185610d5e565b610e916020830184610d5e565b9392505050565b6000602082019050610ead6000830184610d6d565b92915050565b600081519050919050565b600082825260208201905092915050565b6000610eda82610f97565b9150610ee583610f97565b9250827fffffffffffffffffffffffffffffffffffffffffffffffffffffffffffffffff03821115610f1a57610f19611013565b5b828201905092915050565b6000610f3082610f97565b9150610f3b83610f97565b925082821015610f4e57610f4d611013565b5b828203905092915050565b6000610f6482610f77565b9050919050565b60008115159050919050565b600073ffffffffffffffffffffffffffffffffffffffff82169050919050565b6000819050919050565b600060ff82169050919050565b60005b83811015610fcc578082015181840152602081019050610fb1565b83811115610fdb576000848401525b50505050565b60006002820490506001821680610ff957607f821691505b6020821081141561100d5761100c611042565b5b50919050565b7f4e487b7100000000000000000000000000000000000000000000000000000000600052601160045260246000fd5b7f4e487b7100000000000000000000000000000000000000000000000000000000600052602260045260246000fd5b6000601f19601f8301169050919050565b7f5472616e736665722066726f6d207a65726f2061646472657373206973206e6f60008201527f74207065726d6974746564000000000000000000000000000000000000000000602082015250565b7f5468657265206973206e6f20616c6c6f77616e636520746f207472616e73666560008201527f72207468697320616d6f756e7400000000000000000000000000000000000000602082015250565b7f4f6e6c7920746865206f776e657220697320617574686f72697a656420746f2060008201527f6d696e7420746f6b656e73000000000000000000000000000000000000000000602082015250565b7f5472616e7366657220746f207a65726f2061646472657373206973206e6f742060008201527f7065726d69747465640000000000000000000000000000000000000000000000602082015250565b6111c781610f59565b81146111d257600080fd5b50565b6111de81610f97565b81146111e957600080fd5b5056fea2646970667358221220ad01a41af309ffc6c6abce97443d630928a4884476cfea0d84936ff7b29aafa464736f6c63430008040033",
  "linkReferences": {},
  "deployedLinkReferences": {}
}